:020000040800F2
:100000008006002031020008390200083B02000887
:100010003D0200083F020008410200080000000005
:100020000000000000000000000000004302000883
:1000300045020008000000004702000849020008CD
:100040004B0200084B0200084B0200084B0200085C
:100050004B0200084B0200084B0200084B0200084C
:100060004B0200084B0200084B0200084B0200083C
:100070004B0200084B0200084B0200084B0200082C
:100080004B0200084B0200084B0200084B0200081C
:100090004B0200084B0200084B0200084B0200080C
:1000A0004B0200084B0200084B0200084B020008FC
:1000B0004B0200081D0E00084B0200084B0200080E
:1000C0004B0200084B0200084B0200084B020008DC
:1000D0004B020008E91000084B0200084B02000820
:1000E0004B0200084B0200084B0200084B020008BC
:1000F0004B0200084B0200084B0200084B020008AC
:100100004B0200084B0200084B0200084B0200089B
:100110004B0200084B0200084B0200084B0200088B
:100120004B0200084B0200084B0200084B0200087B
:100130004B0200084B0200084B0200084B0200086B
:100140004B0200084B0200084B0200084B0200085B
:100150004B0200084B0200084B0200084B0200084B
:100160004B0200084B0200084B0200084B0200083B
:100170004B0200084B0200084B0200084B0200082B
:100180004B0200084B02000800F002F800F041F8B2
:100190000AA090E8000C82448344AAF10107DA45E2
:1001A00001D100F036F8AFF2090EBAE80F0013F0F3
:1001B000010F18BFFB1A43F001031847F8130000A2
:1001C00018140000103A24BF78C878C1FAD8520732
:1001D00024BF30C830C144BF04680C6070470000C1
:1001E0000023002400250026103A28BF78C1FBD840
:1001F000520728BF30C148BF0B607047782900F014
:100200004580002070471FB501F0B2F91FBD10B541
:1002100010BD00F03DF91146FFF7F5FF01F0EAF8D7
:1002200000F05BF903B4FFF7F2FF03BC01F0CEF876
:100230000948804709480047FEE7FEE7FEE7FEE77A
:10024000FEE7FEE7FEE7FEE7FEE7FEE704480549B6
:10025000054A064B70470000B50D000889010008EB
:100260008000002080060020800200208002002004
:10027000704700000FB4044910B503AA029800F0BB
:10028000D9F810BC5DF814FB1C00002070B50446C2
:100290000D4621461068AFF300802188090502D57C
:1002A0000F4A7A4402E00E4A7A440E32002104F1E9
:1002B000240305E000F00F060009965D5E54491C1A
:1002C0000028F7D120780023000704D5702D02D034
:1002D00009B1022311322046BDE8704000F050B849
:1002E000D41200002DE9F0410F4604460020DFF84B
:1002F0008480F84420622046E168884790B325282E
:1003000006D0D4E901219047206A401C2062F2E720
:1003100000252046E16888472028064608DB312E64
:1003200006D208EB060010F8200C08B10543F0E7F0
:10033000A80701D525F00405A6B1A6F141001928AA
:1003400002D8203645F400653A46314620462560FD
:10035000FFF754FF48B1012805D0FF1D27F007071C
:100360000837C8E703E03F1DC5E73046C9E7206A04
:10037000BDE8F081AC1200007047704770477047CD
:100380002DE9F0470D4699469246044600F12408AF
:100390000168880604D5E06921F01001216000E0C1
:1003A0000120A84201DD471B00E00027A1697A195E
:1003B00002EB0900081AA0612078C00602D420468A
:1003C000AFF30080002608E0D4E901211AF8060006
:1003D0009047206A401C761C20624E45F4DB207852
:1003E000C0060AD52046AFF3008006E0D4E901211B
:1003F00030209047206A401C2062381EA7F1010778
:10040000F4DC07E0D4E9012118F805009047206AE0
:10041000401C2062281EA5F10105F3DC2046AFF345
:1004200000802078000602D50220BDE8F087012078
:10043000FBE70000074B70B50D467B4400F011F858
:100440000446284600F020F810B14FF0FF3070BD90
:10045000204670BD930F000001694A1C02610878B4
:10046000704700B58FB0CDE90131002105910549F4
:100470007944CDE9031011466846FFF733FF0FB00A
:1004800000BD0000E5FFFFFF007B00F0800070472B
:10049000754600F029F8AE4605006946534620F03F
:1004A0000700854618B020B5FFF7D0FEBDE8204014
:1004B0004FF000064FF000074FF000084FF0000B20
:1004C00021F00701AC46ACE8C009ACE8C009ACE8D3
:1004D000C009ACE8C0098D4670470446AFF3008000
:1004E0002046FFF79FFE00000048704720000020D4
:1004F00010B54FF48071024800F0B9F810BD00004B
:10050000001402401CB50121202000F007FA4FF42E
:100510008070009000208DF8060001208DF8040006
:1005200002208DF805006946044800F035F84FF4C4
:100530008071024800F09BF81CBD000000140240CE
:1005400010B54FF48071024800F093F810BD000020
:100550000014024010B50B480068322200FB02F183
:10056000094800F0E4FC07480068322200FB02F171
:10057000064800F0DCFC0120054908600549C1F887
:10058000980210BD04000020000400400008004054
:100590009402424200004242F0B50A460021002384
:1005A000002400BF3DE0012505FA01F3156805EAC6
:1005B00003049C4234D105684F000326BE40B54376
:1005C000056015794E00B54006683543056015791C
:1005D000012D02D01579022D16D185684F00032612
:1005E000BE40B543856055794E00B54086683543B9
:1005F0008560456801268E40B5434560456896791B
:100600008E40B6B235434560C5684F000326BE40F4
:10061000B543C560D5794E00B540C6683543C56061
:10062000491C1029BFD3F0BDF0B5002300244D07AD
:10063000ED0E02FA05F3CE1000F1200555F8265014
:100640004E07F70E0F26BE40B543CF1000F120062F
:1006500046F82750CE1000F1200555F8265045EAFF
:100660000304CE1000F1200545F82640F0BD41837B
:10067000704701837047000010B54FF400510948DE
:10068000FFF7F7FF4FF480410648FFF7F2FF4FF402
:1006900000710548FFF7EDFF4FF480610248FFF756
:1006A000E8FF10BD00100240001402401CB50121FB
:1006B000102000F033F90121202000F02FF94FF431
:1006C000CC40009000208DF8060001208DF8040039
:1006D00002208DF8050069460D48FFF75DFF694669
:1006E0000C48FFF759FF4FF400510948FFF7C1FFCD
:1006F0004FF480410648FFF7BCFF4FF400710548F6
:10070000FFF7B7FF4FF480610248FFF7B2FF1CBD4F
:10071000001002400014024010B54FF40051094887
:10072000FFF7A5FF4FF480410648FFF7A0FF4FF405
:1007300000710548FFF79BFF4FF480610248FFF707
:1007400096FF10BD001002400014024010B5304862
:10075000006870B9C7212F4800F0E9FBC7212E4877
:1007600000F0E5FB00202D4908602D49C1F89802F2
:100770004CE02748006801280ED19621254800F05A
:10078000D6FB6421244800F0D2FB002023490860F6
:100790002349C1F8980239E01D480068022810D1A9
:1007A00064211C4800F0C3FB32211B4800F0BFFB52
:1007B00001201A49091D086000201949C1F8940256
:1007C00024E01348006803280ED16421114800F08A
:1007D000AEFB0021104800F0AAFB00200F49086082
:1007E0000F49C1F8980211E00948006804280DD1AA
:1007F0003221084800F09BFB0021074800F097FBDE
:100800000020064908600649C1F8980210BD0000A2
:10081000040000200004004000080040940242420E
:100820000000424210B50E480068322200FB02F17F
:100830000C4800F07CFB0A48006800EBC00202EBA9
:100840000010C822A2EB4001074800F070FB012015
:100850000649086000200649C1F8940210BD000056
:1008600004000020000400400008004098024242BA
:100870000000424210B540210748FFF7F8FE202152
:100880000648FFF7F4FE40210448FFF7F0FE402140
:100890000348FFF7ECFE10BD0004024000100240C8
:1008A0000000024070B5002100230F22C4781CB361
:1008B000174C246804F4E064C4F5E064C4F3072131
:1008C000C1F10404E3B20A4144789C40E1B2847867
:1008D000144021430C07210E0E4C05786155047815
:1008E00004F01F050124AC4005786D11AD0005F141
:1008F000E025C5F8004109E0047804F01F05012453
:10090000AC40054D0678761145F8264070BD0000D4
:100910000CED00E000E400E080E100E029B1064ACF
:1009200012680243044B1A6004E0034A12688243CF
:10093000014B1A60704700003038024029B1064A66
:1009400012680243044B1A6004E0034A12688243AF
:10095000014B1A60704700004038024029B1064A36
:1009600012680243044B1A6004E0034A126882438F
:10097000014B1A607047000044380240F0B5002176
:1009800000220024022500260223324F3F6807F090
:100990000C0121B1042905D0082937D105E02E4FDB
:1009A000076036E02D4F076033E02A4F3F1F3F6856
:1009B000C7F38056274F3F1F3F6807F03F036EB1D4
:1009C000264FB7FBF3F7DFF88CC0ACF1040CDCF872
:1009D00000C0CCF3881C07FB0CF40CE01E4FB7FBE7
:1009E000F3F7DFF870C0ACF1040CDCF800C0CCF316
:1009F000881C07FB0CF4174F3F1F3F68C7F30147E4
:100A00007F1C7D00B4FBF5F7076002E0124F076022
:100A100000BF00BF0F4F3F6807F0F0010909104FFA
:100A20007A5C0768D74047600A4F3F6807F4E05197
:100A3000890A0B4F7A5C4768D7408760054F3F684B
:100A400007F46041490B064F7A5C4768D740C7609E
:100A5000F0BD0000083802400024F40000127A00C3
:100A60000B0000201CB501210846FFF757FF0121AC
:100A70000220FFF753FF01211020FFF74FFF402016
:100A8000009000208DF8060001208DF8040002205F
:100A90008DF8050069460848FFF77EFD694607485E
:100AA000FFF77AFD6020009069460548FFF774FD66
:100AB000FFF7E0FE1CBD0000000002400004024001
:100AC0000010024010B53048006870B9C7212F48A7
:100AD00000F02DFAC7212E4800F029FA00202D49F8
:100AE00008602D49C1F898024CE0274800680128A9
:100AF0000ED16421254800F01AFA9621244800F00E
:100B000016FA0020234908602349C1F8980239E009
:100B10001D480068022810D132211C4800F007FA55
:100B200064211B4800F003FA00201A49091D0860DF
:100B300001201949C1F8940224E0134800680328F1
:100B40000ED10021114800F0F2F96421104800F0A4
:100B5000EEF900200F4908600F49C1F8980211E032
:100B60000948006804280DD10021084800F0DFF989
:100B70003221074800F0DBF90020064908600649E9
:100B8000C1F8980210BD00000400002000040040DD
:100B900000080040940242420000424210B50E4854
:100BA000006800EBC00202EB0010C822A2EB40017B
:100BB0000A4800F0BCF908480068322200FB02F144
:100BC000074800F0B4F901200649086000200649F2
:100BD000C1F8980210BD000004000020000400408D
:100BE00000080040940242420000424210B50F4803
:100BF000006800EBC00202EB0010C822A2EB40012B
:100C00000B4800F094F90948006800EBC00202EBC1
:100C10000010C822A2EB4001064800F088F900202D
:100C2000054908600549C1F8980210BD040000207C
:100C3000000400400008004094024242000042428A
:100C40001CB501211420FFF769FE1020009001203F
:100C50008DF8040002208DF8050000208DF80600B4
:100C600069460A48FFF798FC4FF400700090002096
:100C70008DF8040001208DF8060069460448FFF74E
:100C80008BFC0020034908601CBD000000100240DE
:100C900000080240900242420CB5002001900090F2
:100CA0003448006840F480303249086000BF314861
:100CB000006800F4003000900198401C01900098FA
:100CC00018B90198B0F5A04FF1D12A48006800F496
:100CD000003010B10120009001E000200090009849
:100CE000012846D123484030006840F08050214917
:100CF000403108602048006840F440401E490860C8
:100D00001C48083000681B49083108600846006824
:100D100040F4004008600846006840F4A0500860B5
:100D20001648091F0860081F006840F08070091FFE
:100D3000086000BF0F48006800F000700028F9D07C
:100D400040F205700E4908600A480830006820F03B
:100D500003000849083108600846006840F00200B6
:100D6000086000BF03480830006800F00C00082845
:100D7000F8D10CBD00380240007000400854400714
:100D8000003C024010B5C721064800F0D0F8C7214A
:100D9000054800F0CCF80020044908600449C1F877
:100DA000980210BD00040040000800409402424236
:100DB0000000424210B51548006840F47000134925
:100DC00008601348006840F00100114908600020E5
:100DD0000F49083108600E4800680E4908400C4968
:100DE00008600D48091D0860081F006820F4802075
:100DF000091F0860002006490C310860FFF74CFF0E
:100E00004FF0006001498039086010BD88ED00E0B6
:100E100000380240FFFFF6FE1030002410B501211B
:100E20000B4800F02CF8012810D10121084800F0EF
:100E300017F808480068C0430749C1F8A0020748EE
:100E4000D0F89802C0430549C1F8980210BD0000CF
:100E500000040040A08242420080424200804042A2
:100E6000CA430282704721B1028842F00102028027
:100E700004E002884FF6FE731A400280704730B5D6
:100E80000246002000230024158A05EA0103958903
:100E900005EA010413B10CB1012000E0002030BDCF
:100EA00070B5002400220023058C4FF6FE763540F5
:100EB0000584028C8388048B4FF68F752C40B51EF9
:100EC0002C400D882C43751E2A408D892A434D885D
:100ED0002A43104DA84202D00F4DA84213D14FF61D
:100EE000F7752A40CD892A434FF6FB752A408D8835
:100EF0002A434FF6FF652B404FF6FF552B400D8AD6
:100F00002B434D8A2B43838004838D684563028481
:100F100070BD000000000140000401400A460021AD
:100F2000018B4FF6F77319401143018370474163FA
:100F30007047000000220288184B98420ED0184BD0
:100F400098420BD0B0F1804F08D0164B984205D094
:100F5000154B984202D0154B984204D14FF68F732F
:100F60001A404B881A43124B984207D0114B9842B3
:100F700004D04FF6FF431A400B891A4302804B6896
:100F8000C3620B880385054B984202D0044B9842FC
:100F900001D18B7A038601238382704700000140D0
:100FA000000401400004004000080040000C004024
:100FB000001000400014004000B58BB00121022059
:100FC000FFF7BCFC01211320FFF7A8FC4020049090
:100FD00002208DF814008DF8150000208DF8160001
:100FE00004A91948FFF7D8FA022206211648FFF78C
:100FF0001BFBC720029040F2A310ADF804000020B4
:10100000ADF80C00ADF8060001A91048FFF792FFFB
:101010006020ADF818000120ADF81A000220ADF8EC
:10102000240006A90948FFF73BFF08210748FFF7FE
:1010300075FF64210548FFF77AFF01210348FFF798
:1010400012FF0BB000BD000000040240000400408D
:1010500000B58BB001210420FFF770FC01211320A3
:10106000FFF75CFC4020049002208DF814008DF8FE
:10107000150000208DF8160004A91948FFF78CFA16
:10108000022206211648FFF7CFFAC720029040F24D
:10109000A310ADF804000020ADF80C00ADF8060078
:1010A00001A91048FFF746FF6020ADF818000120A5
:1010B000ADF81A000220ADF8240006A90948FFF790
:1010C000EFFE08210748FFF729FF64210548FFF7D5
:1010D0002EFF01210348FFF7C6FE0BB000BD000044
:1010E000000002400008004010B540F225510C48B5
:1010F00000F04AF8012811D140F22551084800F0CB
:101100001BF8074800F0FAF8064908800120064954
:1011100008700448018805A0FFF7ACF810BD000076
:1011200000100140080000200A0000205265733DB5
:101130002523780A0000000010B50022002340F6A5
:101140006A14A14200D100BF0A1201249440A3B244
:10115000DC43048010BD21B1828942F400528281B7
:1011600004E082894DF6FF731A408281704702467F
:101170000020B1F5007F00D100BF13880B400BB1F8
:10118000012000E00020704770B5024600240023D3
:101190000025002040F66A16B14200D100BFC1F31D
:1011A000421501F01F03012606FA03F3012D02D1B7
:1011B0009689334006E0022D02D1168A334001E0C1
:1011C000968A33400C12012606FA04F4168834403D
:1011D00013B10CB1012000E0002070BDF0B5034652
:1011E000002400260025002040F66A17B94200D1ED
:1011F00000BF1846C1F3421401F01F06012707FA89
:1012000006F5012C01D10C3004E0022C01D1103084
:1012100000E014301AB107682F43076002E0076846
:10122000AF430760F0BD00002DE9FF4705460E46BD
:101230000024A14600BFA046B08900B100BF2C8A9F
:1012400024F44054F08804432C82AC8941F20C60B1
:101250008443B08831890843718908430443AC81D1
:10126000AC8A24F44074B0890443AC826846FFF72A
:1012700085FB2048854202D01F48854202D1DDF817
:101280000C9001E0DDF80890A88900F4004040B11E
:1012900009EBC90000EB091031684900B0FBF1F718
:1012A00007E009EBC90000EB091031688900B0FBC9
:1012B000F1F76420B7FBF0F004012009642101FB81
:1012C0001078A88900F4004040B1322000EBC8003B
:1012D000B0FBF1F000F00700044308E0322000EB1F
:1012E00008106421B0FBF1F000F00F0004432C81E2
:1012F000BDE8FF87001001400014014001468888C6
:10130000C0F308007047C1F30802828070470000F4
:1013100000B587B001211020FFF720FB012108460E
:10132000FFF7FCFA072209212148FFF77DF9072280
:101330000A211F48FFF778F94FF4C060059002209A
:101340008DF818008DF8190000208DF81A0005A9F5
:101350001748FFF721F94FF4164001900020ADF82F
:101360000800ADF80A00ADF80C00ADF810000C2034
:10137000ADF80E0001A90F48FFF756FF25208DF8A4
:10138000000003208DF801008DF8020001208DF887
:1013900003006846FFF786FA012240F2255105480E
:1013A000FFF71CFF01210348FFF7D5FE07B000BD82
:1013B000000002400010014010B54FF400710248D7
:1013C000FFF755F910BD00000014024000BF704740
:1013D00070B504460D46A1B20548FFF794FF00BF63
:1013E00080210348FFF7C3FE0028F9D0204670BDD6
:1013F00000100140FFF75AF9FFF784F8FFF732FBBE
:10140000FFF786FFFFF7D8FFFFF71AFCFFF7D4FDC1
:10141000FFF71EFEFFF7B6FCA1E051480078002858
:1014200075D0504800883038142861D2DFE800F0C9
:101430000A10161C22282E343A47606060606060F3
:1014400054575A5DFFF79EFC0620474908604FE05D
:10145000FFF7CCFB00204449086049E0FFF77AF829
:1014600001204149086043E0FFF7DCF902203E49D2
:1014700008603DE0FFF792FB03203B49086037E03E
:10148000FFF764F904203849086031E0FFF71AFBE0
:101490000520354908602BE0FFF75CF80120324950
:1014A000086025E031480068401C3049086001248C
:1014B00008460068042801DD0420086018E02B4875
:1014C0000068401E29490860012408460068002879
:1014D00001DA002008600BE0FFF732F808E0FFF7C0
:1014E00007F805E0FFF718F902E0FFF7C5F800BFBD
:1014F00000BF84B31C48006810B9FFF777FB29E0F0
:1015000019480068012803D1FFF724F822E025E0FC
:1015100015480068022802D1FFF784F91AE0124842
:101520000068032802D1FFF739FB13E00E4800687A
:10153000042802D1FFF70AF90CE00B4800680528DF
:1015400002D1FFF7BFFA05E007480068062801D17D
:10155000FFF718FC002400200149087000BF5CE779
:101560000A000020080000200000002004000020E5
:101570004FF04070E1EE100A7047303132333435AD
:1015800036373839414243444546403058003031BF
:1015900032333435363738396162636465664030DA
:1015A00078000400000800000000000000020001B4
:1015B00000001000D41500080000002020000000EA
:1015C000C4010008F4150008200000206006000097
:1015D000E00100080600000001000000000000001B
:1015E00000000001020304010203040607080900C9
:0415F00000000000F7
:040000050800018965
:00000001FF
